:020000040800F2
:10000000980D002085380008C1020008C3020008CE
:10001000C7020008CB020008CF0200080000000061
:10002000000000000000000000000000D3020008F3
:10003000D502000800000000D7020008D90200081D
:100040009F3800089F3800089F3800089F38000834
:100050009F3800089F3800089F3800089F38000824
:100060009F3800089F3800089F3800089F38000814
:100070009F3800089F3800089F3800089F38000804
:100080009F3800089F3800089F3800089F380008F4
:100090009F3800089F3800089F3800085F17000845
:1000A0009F3800089F3800089F3800089F380008D4
:1000B00087350008F31900089F3800089F380008AA
:1000C0009F3800089F3800089F3800089F380008B4
:1000D0009F3800081D3800089F380008A51E00083A
:1000E0009F3800089F3800089F3800089F38000894
:1000F0009F3800089F3800089F3800089F38000884
:100100009F3800089F3800089F3800089F38000873
:100110009F3800089F3800089F3800089F38000863
:100120009F3800089F3800089F3800089F38000853
:1001300000F002F800F03AF80AA090E8000C8244BF
:100140008344AAF10107DA4501D100F02FF8AFF29C
:10015000090EBAE80F0013F0010F18BFFB1A43F0A5
:1001600001031847CC970000EC970000103A24BF19
:1001700078C878C1FAD8520724BF30C830C144BF0C
:1001800004680C607047000000230024002500264E
:10019000103A28BF78C1FBD8520728BF30C148BFEA
:1001A0000B6070471FB51FBD10B510BD06F089FC70
:1001B0001146FFF7F7FF00F009F806F0A7FC03B4BB
:1001C000FFF7F2FF03BC03F05FFA000000F0F5F860
:1001D00003F0F0F94FF4A06003F074FB00F06EF947
:1001E000962003F024FA01202F49086001F01EFB3D
:1001F00001F00DFE03F0D8FA02F000FE00F03CFA28
:1002000003F050F803F0B0F801F0F1FC05F008FE3F
:1002100000F01CFD02F011FE03F0BBF8142003F007
:1002200006FA01F08CFA3DE02048007808B101F0B0
:100230001EFE1F48007808B103F0E2FA1D4800785E
:10024000B8B14FF400711C4803F09DFC012810D197
:100250000A2003F0ECF94FF40071174803F093FC07
:10026000012806D10121084601F02BFB002011498D
:10027000087012480078A8B14FF400710E4803F0DE
:1002800082FC01280ED10A2003F0D1F94FF400714D
:10029000094803F078FC012804D102F0B3FD0020E6
:1002A00006490870C0E70000808121424E0000200E
:1002B0006000002049000020000C014047000020A1
:1002C000704700BFFEE700BFFEE700BFFEE700BFCC
:1002D000FEE7704770477047704700000CB500207C
:1002E000019000906C48006840F480306A490860D2
:1002F00000BF6948006800F4003000900198401C7D
:100300000190009818B90198B0F5A06FF1D162483A
:10031000006800F4003010B10120009001E00020DE
:1003200000900098012843D15C48006840F010001C
:100330005A4908600846006820F003000860084633
:10034000006840F002000860534840685249486025
:100350000846406848600846406840F4806048604D
:100360000846406820F47C1048600846406840F425
:10037000E81048600846006840F08070086000BFE0
:100380004548006800F000700028F9D042484068F5
:1003900020F00300404948600846406840F00200F1
:1003A000486000BF3C48406800F00C000828F9D1C4
:1003B0000CBD10B5FFF792FF10BD10B536480068B0
:1003C00040F001003449086008464068344908405C
:1003D0003149486008460068324908402E490860A3
:1003E0000846006820F4802008600846406820F431
:1003F000FE0048604FF41F008860FFF7DAFF4FF0FF
:1004000000602949086010BD10B5002100200022BD
:10041000214B5B6803F00C0121B1042906D00829A7
:1004200028D107E0214B224C236027E01F4B204CB2
:10043000236023E0184B5B6803F47010164B5B6875
:1004400003F48032022303EB904022B9194B43435B
:10045000174C23600DE0104B5B6803F4003323B1AD
:10046000144B4343124C236003E0104B4343104CA6
:10047000236003E00D4B0E4C236000BF00BF064B12
:100480005B68C3F303130C4CE15C094B1B68CB4066
:10049000074C236010BD0000001002400020024005
:1004A0000000FFF8FFFFF6FE08ED00E000127A0002
:1004B0000000002000093D000400002008B50121D3
:1004C000082003F089FD0220ADF8000010208DF80F
:1004D000030003208DF802006946094803F0C0FAC2
:1004E0000221074803F069FB0120ADF8000010204D
:1004F0008DF803006946024803F0B2FA08BD000017
:10050000000C014038B5002400BF8FE0002078497E
:100510000870784951F8240080470DF804007648A7
:10052000005D30B101280BD0022828D003286FD1FC
:100530004AE01DF8040010B101206F49085567E03A
:100540001DF8040098B16D4830F81400401E80B2C8
:100550006A4921F8140088B9022021F8140066497C
:10056000085504EB8400401C6149087006E0022035
:10057000624921F8140000205F49085548E01DF841
:100580000400A0B15E4830F81400401E80B25C49FF
:1005900021F81400B8B9C82021F8140003205649E6
:1005A000085504EB8400C01C514908700BE0C820BA
:1005B000534921F8140000204F49085504EB8400EA
:1005C000801C4B49087023E01DF8040090B14D4891
:1005D00030F81400401E80B24A4921F81400B0B926
:1005E0004FF4967021F8140004EB8400001D40497C
:1005F00008700CE00020404908554FF496704149BE
:1006000021F8140004EB8400401D3949087000BF34
:1006100000BF3748007838B13B48006820B1344803
:100620000078394909688847601CC4B2022CFFF67B
:100630006DAF0221002001F080F938BD08B501211D
:10064000112003F0C9FC002003F033FC4FF40040FC
:10065000ADF8000048208DF8030069462B4803F0F0
:10066000FFF92020ADF8000028208DF8030069462E
:10067000264803F0F5F908BD10B5002400202249F2
:100680000860FFF7DBFF00BF11E000201A490855A2
:1006900002201A4921F81400C820194921F8140031
:1006A0004FF49670174921F81400601CC4B2022C54
:1006B000EBDB02230A22AFF2B311002001F0D9F8DC
:1006C00010BD1149096809B90F490860704710B594
:1006D0004FF400410D4803F056FA08B9012010BD4F
:1006E0000020FCE710B52021084803F04CFA10BDAB
:1006F0002E000020180000202000002022000020F2
:10070000260000202A0000201400002000100140D4
:100710002DE9F0478046002600240025A1464746E3
:10072000FE48807828B1012805D0022805D1482646
:1007300005E0182603E03C2601E0482600BF00BF84
:10074000F648007810B1012863D123E0002414E0BA
:1007500047FA04F000F00109B9F1000F05D004F1E7
:100760000D00EF4921F8106005E0002104F10D00B3
:10077000EB4A22F81010601CC4B2082CE8DB3846A3
:1007800006F08FF810B1E648468502E00020E44903
:1007900048853EE0E348C770042106F074F8E1495B
:1007A0000871032432E0002519E0DE48005D28418D
:1007B00000F00109B9F1000F07D004EBC400001DDF
:1007C0002844D94921F8106007E0002104EBC40057
:1007D000001D2844D44A22F81010681CC5B2082D08
:1007E000E3DBD049085D06F05CF830B104EBC400EF
:1007F0000C30CD4921F8106006E0002104EBC40064
:100800000C30C94A22F81010601CC4B2052CCADB97
:1008100000BF00BFBDE8F0872DE9FE4F8146884646
:1008200092461E460024CDF80890A34600250027D6
:10083000002001900090BAF1000F07D0BAF1010F2B
:1008400006D0BAF1020F05D1482405E0182403E0D0
:100850003C2401E0482400BF00BF0298002848D192
:100860006421AF4806F0AEF8AD4804800020AC49E2
:10087000488008468480C48096F800B0002512E0C5
:100880004BFA05F000F001000190019820B1281DFD
:10089000A34921F8104004E00021281DA04A22F8B5
:1008A0001010681CC5B2082DEADB584605F0F9FFA8
:1008B00010B19B48048302E0002099490883B8F1F5
:1008C000000F0DD096488485C48500209449088681
:1008D00008464486012095490870FFF719FF76E025
:1008E0008F484483848300208D49C883084604844C
:1008F0006DE09A218C4806F065F88B480480002052
:100900008949488008468480C480B8F1000F18D017
:1009100005200090012085490870F07008700421BE
:10092000304605F0B0FF30717F48A0F86240A0F873
:10093000644000207C49A1F866000846A0F86840A1
:100940000FE0042000903079F0707748A0F8504014
:10095000A0F8524000207449A1F854000846A0F8BD
:100960005640002530E0002718E0705D384100F067
:1009700001000190019838B105EBC500001D384415
:10098000694921F8104007E0002105EBC500001D72
:100990003844654A22F81010781CC7B2082FE4DBEF
:1009A000705D05F07EFF30B105EBC5000C305E498F
:1009B00021F8104006E0002105EBC5000C305A4A32
:1009C00022F81010681CC5B200988542CBDBBDE848
:1009D000FE8F10B551480078B8B952480021016027
:1009E00001714E498A880280897981705048407827
:1009F00010B9FF204B49087048498A780878494B5C
:100A00004C490978FFF708FF1CE0464800210160C7
:100A1000017142498A88028089798170444840780E
:100A200010B9FF203F49087003213E4805F02BFF15
:100A30003C49087139498A7808783A4B3D49097828
:100A4000FFF7EAFE10BD01203849087000203A493E
:100A50000870012036490870002048701E20488028
:100A600000208880354908707047F0B58BB0074684
:100A70000C4615461E460121084603F0A0FA3846EA
:100A800003F012FD00BF384603F0F2FD0028FAD152
:100A9000009401951020029003960020049080207D
:100AA00005904000069080000790002008904FF4C9
:100AB0004050099000200A906946384603F096FDA0
:100AC0000BB0F0BD30B589B005460C4601210820B9
:100AD00003F082FA0121042003F08BFA4FF48070B6
:100AE000ADF8200003208DF8220018208DF8230097
:100AF00008A9134802F0B4FFADF81850ADF814403F
:100B00000020ADF81A00ADF8160005A90D4803F055
:100B1000C9FE6020ADF80400012015E03700002078
:100B2000E8000020300000204C010020460000209A
:100B30003E00002045000020360000204700002035
:100B4000000C014000080040ADF806000020ADF8A0
:100B50000C00ADF80A0001A9F84803F06FFF082166
:100B6000F64804F041FB01221102F44804F021FA96
:100B700009B030BD08B5F2A0006800900722F14925
:100B8000002001F0F2FBEF480078FF2837D0ED4855
:100B90008078FF2833D0EB48C078FF282FD0E94871
:100BA0004078FF282BD003226946E648001D05F057
:100BB00098FE20B3E448002101600171E1498A8870
:100BC000028089798170007810B9FF20DE490870B1
:100BD000DC484078DD4908700321DB4805F053FE0E
:100BE000D9490871D7498A780878D74BD749097805
:100BF000FFF712FED348C078D549087025E0D148E8
:100C0000D1490A888280897881710120CD49087094
:100C10004870CE4908700220CA4988700320C87005
:100C2000CB4908700722C749002001F0C9FA032107
:100C3000C54805F028FEC4490871C2498A78087879
:100C4000C14BC2490978FFF7E7FD08BD10B5FFF7B2
:100C500091FFBC48807848B101280CD002280FD100
:100C6000022140F2F310FFF72DFF0FE002212F20A9
:100C7000FFF728FF0AE002217720FFF723FF05E0B6
:100C8000022140F2F310FFF71DFF00BF00BFAD4887
:100C90000078C0B9AD48007850B13223AD4AA749B9
:100CA0003C31AD48FFF7E1FE3220AC49087022E04C
:100CB0002923A84AA1493C31A748FFF7D6FE29209D
:100CC000A649087017E0A148007850B14D23A44A06
:100CD0009A493C31A048FFF7C8FE4D209F49087053
:100CE00009E044239E4A95493C319B48FFF7BDFEED
:100CF00044209A490870FFF7A6FEFFF76AFE10BD70
:100D000070B586B004460D460026142101A805F0F2
:100D10007BFE68208DF8040021208DF8050000205E
:100D20008DF806000D208DF807000A208DF80800C8
:100D3000854800788DF80900834840788DF80A00CE
:100D400000208DF80B008DF80C0021208DF80D008F
:100D5000C1208DF80E0028128DF80F00E8B28DF832
:100D6000100020128DF81100E0B28DF812000F2152
:100D700001A805F0ADFC064630128DF81300F0B264
:100D80008DF8140016208DF81500122101A801F02D
:100D900059F806B070BD10B57248007801286ED1C0
:100DA00000BF6648008840F00100644908806A4836
:100DB00000684FF6FE71084067498039C1F880002D
:100DC00066480078C1F884000846D0F8800040F0FA
:100DD00001006149086000BF5F4803F049FC00283A
:100DE000FAD161480078401C5F49087008460078D5
:100DF000574909788842D4DB0021504804F0AEF806
:100E0000554800684FF6FE71084053498039C1F8D3
:100E100080000020544908705248407801282FD0A3
:100E20005048407804282BD04E4880884FF6FF71F8
:100E3000884203D100204B49888004E049488088DB
:100E4000401C4849888047484088401E45494880A2
:100E50000846408868B9002008700120434908709E
:100E600004F0E7FE012804D104F0E0FE08B904F024
:100E7000D9FE3C4A51889088FFF742FF22E035E0D6
:100E800038484078012814D1364880884FF6FF71E1
:100E9000884203D100203349888004E031488088AB
:100EA000401C304988804FF6FF710846FFF728FF45
:100EB00008E02C484078042804D14FF6FF7108461A
:100EC000FFF71EFF2A480078FF2803D10120284998
:100ED000087004E026480078401C254908701B482B
:100EE000007818B122480078FFF712FC10BD2DE9F8
:100EF000F84F04460F46154698460A9EA146AA4654
:100F00004FF0000B00200090104807700D4847700C
:100F10000F4880F800800B4880F8038080F800902C
:100F200080F802A0807828B3012828D002282BD18D
:100F3000022140F2F310FFF7C5FD2BE0000800404E
:100F4000FFFFFF0037000020300000204500002098
:100F500035000020E800002080000240440000200E
:100F60004C0100203E0000203600002047000020F9
:100F70004600002002212F20FFF7A4FD0AE00221F5
:100F80007720FFF79FFD05E0022140F2F310FFF705
:100F900099FD00BF00BFB9F1000F2CD103226946B3
:100FA000304605F09EFC40B1FE4800210160017111
:100FB0003078FC4908704FF0010BFA4B5246FA4862
:100FC00001782046FFF728FCF748007848B1322323
:100FD000F64AF749F748FFF748FD3220F64908700E
:100FE0003BE02923F14AF249F248FFF73EFD292070
:100FF000F149087031E003226946304605F071FC82
:1010000070B1E84800210160017131880180B17838
:101010008170032105F037FCE24908714FF0010BA4
:10102000E04B5246E04801782046FFF7F5FBDE48EA
:10103000007848B14D23E14ADD49DE48FFF715FD50
:101040004D20DD49087008E04423DC4AD849D948DE
:10105000FFF70BFD4420D8490870D948D1490A88C8
:1010600082808978817107220146002001F0A8F86A
:10107000BBF1000F02D0CB4805F0CAFBBDE8F88FEA
:1010800038B5044600200090CD48807848B101284A
:101090000CD002280FD1022140F2F310FFF712FD0D
:1010A0000FE002212F20FFF70DFD0AE0022177203B
:1010B000FFF708FD05E0022140F2F310FFF702FD03
:1010C00000BF00BFBE48007858BB032269462046D7
:1010D00005F007FC30B1B3480021016001712078B0
:1010E000B0490870B6498A780878AE4BAE4909789D
:1010F000FFF792FBAC48007848B13223AB4AAC49C9
:10110000AC48FFF7B2FC3220AB4908703AE0292323
:10111000A64AA749A748FFF7A8FC2920A6490870B6
:1011200030E003226946204605F0DBFB60B19D48B4
:1011300000210160017121880180A1788170032163
:1011400005F0A1FB974908719D498A780878954B6D
:1011500095490978FFF760FB9348007848B14D2323
:10116000964A93499348FFF780FC4D2092490870B6
:1011700008E04423914A8E498E48FFF776FC4420CC
:101180008D4908708E4887490A88828089788171E4
:1011900007220146002001F013F838BD1FB50024D6
:1011A0000020009001900290039068208DF80000CC
:1011B00021208DF8010000208DF8020005208DF817
:1011C000030007208DF804007D4800788DF80500A5
:1011D0007B4840788DF80600794880788DF80700C4
:1011E0007748C0788DF8080075488188ADF80910F7
:1011F00080798DF80B000C21684605F069FA0446E9
:1012000020128DF80C00E0B28DF80D0016208DF83C
:101210000E000F21684600F015FE1FBD10B586B008
:101220000024142101A805F0EFFB68208DF80400CC
:1012300021208DF8050000208DF8060015208DF87E
:10124000070009208DF8080000F02CFD8DF809003A
:101250005C4800788DF80A005A4840788DF80B00F9
:101260005848408800128DF80C00564880788DF858
:101270000D005448808800128DF80E005148007906
:101280008DF80F00012000F014FB00128DF8100003
:10129000012000F00EFBC0B28DF811000E2101A854
:1012A00005F016FA044620128DF81200E0B28DF80F
:1012B000130016208DF81400112101A800F0C2FDC2
:1012C00006B010BD10B5FFF766FD02210B2000F03F
:1012D00034FB10BD2DE9FE43044689460025002657
:1012E0000020009001900290FF27B84601208DF861
:1012F0000500607902280ED1607A217A00EB012086
:1013000086B2642E03DA00208DF8050003E0314632
:10131000012000F0C7FA6079042806D10123C82211
:10132000AFF25F010B2000F0A4FA6079042827DCFB
:101330009DF80500012823D122484778607921498A
:101340004870804600208880E079A17900EB012078
:101350001C49488001208DF805000020087001F02C
:1013600051FD022005F086F947450CD004F061FCE0
:10137000012808D104F05AFC28B904F053FC02E01B
:1013800000208DF805009DF80500012801D1FFF728
:1013900020FB142002F04BF968208DF8000021207A
:1013A00012E000003000002045000020E80000208E
:1013B0003C08004080000240440000204C01002016
:1013C000370000203E0000208DF8010000208DF83D
:1013D00002000B208DF8030001208DF80400062187
:1013E000684605F075F9054628128DF80600E8B242
:1013F0008DF8070016208DF808000921684600F0D6
:1014000021FDBDE8FE83FEB50446002500200090C6
:1014100001900290FF27FF26A74807784CB90020CB
:10142000A5490870064601F0EDFC01208DF8050085
:101430000EE0012C09D101209F490870064601F0F9
:10144000FCFC01208DF8050002E000208DF805006D
:10145000B74208D004F0EDFB012804D104F0E6FB0C
:1014600008B904F0DFFB68208DF8000021208DF81A
:10147000010000208DF802000C208DF803000120EF
:101480008DF804000621684605F022F90546281269
:101490008DF80600E8B28DF8070016208DF80800D8
:1014A0000921684600F0CEFCFEBD2DE9FE4304464E
:1014B0008846002500270026002000900190029019
:1014C000A079617900EB012086B27B4840884FF615
:1014D000FF710F1ABE4203DD08467749488004E0D9
:1014E0007548408830447449488068208DF8000071
:1014F00021208DF8010000208DF802000E208DF8CB
:10150000030001208DF804008DF8050006216846CF
:1015100005F0DEF8054628128DF80600E8B28DF8D1
:10152000070016208DF808000921684600F08AFCA3
:10153000BDE8FE836048407808B9002070475E48E7
:101540004078012800D1F9E75B484078022800D1B3
:10155000F4E759484078032800D1EFE7564840782F
:10156000042800D1EAE7FF20E8E75348007808B9EB
:101570000020704750480078012800D1F9E7FF208B
:10158000F7E74D48408870474B48808870470120F6
:101590004A490870704710B501204749087001F0AA
:1015A0004CFC45484078042803D102210B2000F070
:1015B000C4F904F03EFB012804D104F037FB08B95C
:1015C00004F030FB00203C49888004F032FB012805
:1015D00004D104F02BFB08B904F024FB01F033FF25
:1015E000012004F050FC002004F06FFB10BD10B58A
:1015F00001203149087001F020FC2F484078042870
:1016000003D101210B2000F05CF900202A49487029
:1016100004F00FFB012804D104F008FB08B904F022
:1016200001FB1E20244948800020888004F001FB33
:10163000012804D104F0FAFA08B904F0F3FA01F031
:10164000A8FE04F033FC012805D1002004F01BFCA7
:10165000012004F03AFB10BD10B5002016490870B7
:1016600001F0D0FB14484078042803D101210B205D
:1016700000F027F900201049487001F025FF0020F4
:1016800004F001FC012004F020FB04F0D2FA012850
:1016900004D104F0CBFA08B904F0C4FA00200649DA
:1016A000488004F0C6FA012804D104F0BFFA08B952
:1016B00004F0B8FA10BD00003E00002046000020F3
:1016C00000203D49087070470EB50121084602F020
:1016D00083FC0921012002F0D9FA4FF40070019037
:1016E00000208DF808000C208DF8090001208DF8ED
:1016F0000A0001A803F01EFF17208DF8000000204B
:101700008DF801008DF8020001208DF80300684675
:1017100002F0DDF80EBD08B50121082002F05CFCE6
:101720004FF40070ADF8000048208DF8030003204E
:101730008DF802006946214802F092F908BD10B503
:10174000FFF7E9FFFFF7C0FF00201B4908700123E6
:101750006422AFF29301072000F08BF810BD10B5A2
:101760004FF40071154802F00EFAF8B90A2001F0A2
:101770005EFF4FF40071114802F005FAB0B90E484F
:10178000007898B9FFF707FB01200B490870022188
:10179000072000F0D2F8FFF7CDFE022806D1022183
:1017A000012000F0CAF80120054908704FF40070CC
:1017B00003F037FF10BD000048000020000C01407E
:1017C000490000207FB505460C460121022002F0A9
:1017D00010FC8E4802F092FFADF80850ADF80440BE
:1017E0000020ADF80A00ADF8060001A9874803F013
:1017F00059F80121854803F077FE012211468348FC
:1018000003F0C7FB0121814803F0A8FB1D208DF8E0
:10181000000001208DF8010000208DF80200012059
:101820008DF80300684602F052F87FBD10B54721DD
:1018300040F2E730FFF7C6FF002017E0012100EB80
:101840004002734B03F82210002100EB400203EB2F
:101850008202918000EB400203EB8202518000EB98
:10186000400203EB82029160411CC8B20F28E5DB05
:1018700010BD70B500EB4004654D05F82430002420
:1018800000EB4005624E06EB8505AC8000EB4004A2
:10189000354605EB8404628000EB400405EB8404CC
:1018A000A16070BD00EB4002594B03EB82025180F6
:1018B0007047014601EB4100554A02EB8000408829
:1018C0007047024602EB4200514B03EB80008068F8
:1018D00028B102EB420003F82010012070470020DD
:1018E000FCE7014601EB4100494A02EB80008068B9
:1018F00020B101EB410012F8200070470020FCE706
:10190000014601EB4100424A02EB8000806890B141
:10191000012001EB41023E4B03F82200002001EBC5
:10192000410203EB8202908001EB410203EB820251
:101930009060012070470020FCE710B5024602EBE2
:101940004200334B03EB8000806860B102EB420041
:1019500003F82010002002EB42032D4C04EB83031C
:101960009880012010BD0020FCE710B500243DE068
:1019700004EB4400264901EB80008068A0B304EB2F
:10198000440011F8200002282ED104EB440001EBA2
:1019900080008088401C04EB44011D4A02EB810159
:1019A000888004EB4400114601EB8000808804EB42
:1019B000440102EB81014988884215DB012004EBD8
:1019C000440102F8210004EB4400114601EB8000C1
:1019D000808804EB440102EB8101888004EB440120
:1019E00002EB810188688047601CC4B20F2CBFDB0A
:1019F00010BD10B50121054803F079FD28B1FFF7AE
:101A0000B4FF0121014803F083FD10BD0004004034
:101A1000E801002010B50446072301222146A3480F
:101A200003F0C7FE0121A14803F097FE00BF022189
:101A30009E4804F003F80028F9D09C4803F020FFEA
:101A400010BD2DE9F04107460C460025002608E0B0
:101A50003846FFF7DFFF0544052001F0E8FD701C64
:101A6000C6B2A642F4DBB5FBF4F080B2BDE8F0816B
:101A70002DE9F84F0A210120FFF7E3FF00900098BD
:101A800005F06EFC834605F0BDFB06464FF066325E
:101A9000874B05F099F904460022864B05F094F92E
:101AA000804605F041F88246504605F0ABFB0446FF
:101AB000814A824B05F086FA03D864208049087079
:101AC0004DE0504605F09EFB04464FF066327D4BDC
:101AD00005F078FA0DD851467B4805F055FC0546CF
:101AE0007A4905F01DFD044605F01AFC744908709A
:101AF00035E0504605F086FB04466F4A744B05F00E
:101B000061FA0DD85146734805F03EFC054672490E
:101B100005F006FD044605F003FC694908701EE067
:101B2000504605F06FFB04466C4A6D4B05F04AFACF
:101B300012D2504605F066FB80460022694B05F044
:101B400043F906460022684B05F072FA044605F098
:101B5000D1F85B49087002E00020594908705848E4
:101B60000078401E61490978884206DC5F480178A8
:101B700053480078401C814205DD5D480078401CD8
:101B80005B49087002E00020594908705848007805
:101B9000032810DB00205649087049480078554951
:101BA00008705249087004F044F820B904F03EF877
:101BB00008B904F037F8BDE8F88F10B5FFF758FF03
:101BC0004C480078192804DC04F070F908B901F0D9
:101BD000BCFC4848007828B904F068F9012801D114
:101BE000FFF71CFB02210846FFF7A7FE10BD00B55A
:101BF00087B001214FF4017002F0EEF94FF400407C
:101C000002F04EF90220ADF8040000208DF8070024
:101C100001A9394801F024FF244803F00BFD0020FE
:101C200002908DF80C008DF80D004FF460200490A8
:101C30000020059001208DF8180002A91B4803F030
:101C400020FD0121194803F048FD184803F067FD05
:101C500000BF164803F068FD0028FAD1134803F0CE
:101C60006DFD00BF114803F06EFD0028FAD102237C
:101C700041F28832AFF2BD011846FFF7FAFD0020AD
:101C80001C49087007B000BD10B5002400BF06E075
:101C9000FFF7EEFE0A2001F0CAFC601CC4B2032C60
:101CA000F6DB10BD134800787047000000240140A7
:101CB00066664A3F00000840CDCCCCCCCCCC10406E
:101CC0004C00002066660E4000009642000057431C
:101CD000CCCC0C4000006143004044449A9999994F
:101CE0009999094000404F40000069404B00002096
:101CF0004D0000204A0000200008014000B58BB0D4
:101D00000121084602F05BF97F4802F0CDFB7F48D5
:101D100000907F48019000200290962003900020C0
:101D200004908020059000200690079008904FF4C2
:101D30000050099000200A906946734802F056FC52
:101D40000121714802F07DFC012202216E4802F05F
:101D500084FC0BB000BD10B586B0044601210820FC
:101D600002F03AF90121880402F043F94FF480604F
:101D7000ADF8140003208DF8160018208DF8170018
:101D800005A9644801F06CFE4FF40060ADF8140042
:101D900003208DF8160004208DF8170005A95D4872
:101DA00001F05EFE01940020ADF80800ADF80A00D5
:101DB000ADF80C00ADF810000C20ADF80E0001A934
:101DC0005248001F02F0AFF9012240F224414F486F
:101DD000001F02F040FA012240214C48001F02F08F
:101DE0005FFA01214948001F02F029FA27208DF8E7
:101DF000000002208DF8010000208DF80200012073
:101E00008DF80300684601F062FD06B010BD10B504
:101E10004FF4E130FFF79FFFFFF770FF00203E49CE
:101E2000087010BD10B5044621463848001F02F066
:101E300073FA00BF80213548001F02F0DBFA012849
:101E4000F8D110BD70B505460E46002404E0285DAB
:101E5000FFF7E8FF601CC4B2B442F8DB00BF4021CA
:101E60002A48001F02F0C6FA0128F8D170BD10B54B
:101E700000242748801E44782246811C274804F00D
:101E80005CFD26480078682808D1601E2349085C5C
:101E9000162803D12146214804F066FC00201E4983
:101EA000087010BD10B540F224411848001F02F020
:101EB000B7FA38B31648801E0078401C1449891EB2
:101EC00008700021104802F0BCFB0F4802F0D0FB64
:101ED000C0F196000E49891E487040F224410B481B
:101EE000001F02F0C7FA9621074802F0BFFB01214C
:101EF000054802F0A6FB0548001F02F011FA012078
:101F00000549087010BD0000300002400448004040
:101F10009E020020000C01404E00002034030020EF
:101F200010B5044624B11021FD4801F046FE03E03F
:101F30001021FB4801F043FE10BD10B5044624B14A
:101F40002021F74801F039FE03E02021F44801F098
:101F500036FE10BD08B50121082002F03DF8302002
:101F6000ADF8000003208DF8020014208DF8030066
:101F70006946EB4801F074FD0120FFF7D1FF012015
:101F8000FFF7DBFF08BD10B5FFF7E4FF10BD38B564
:101F900004468CB90121082002F01EF81020ADF88B
:101FA000000003208DF8020014208DF8030069461C
:101FB000DB4801F055FD13E0012C11D1012108206F
:101FC00002F00AF81020ADF8000003208DF802009E
:101FD00048208DF803006946D14801F041FD00BF5B
:101FE00038BD10B51021CE4801F0CDFD10BD10B5A3
:101FF00032210346002206E001E04C1EA1B2002976
:10200000FBD1541CA2B29A42F6DB10BD10B50120E0
:10201000FFF786FF0120FFF7EAFF0120FFF78DFFA2
:102020000120FFF7E4FF0020FFF77AFF0120FFF710
:10203000DEFF10BD10B50020FFF772FF0120FFF793
:10204000D6FF0120FFF779FF0120FFF7D0FF012025
:10205000FFF766FF0120FFF7CAFF10BD10B5002093
:10206000FFF76BFF0120FFF7C2FF0020FFF758FFCB
:102070000120FFF7BCFF0120FFF75FFF0120FFF702
:10208000B6FF0020FFF759FF0120FFF7B0FF10BD9A
:1020900010B50020FFF751FF0120FFF7A8FF012036
:1020A000FFF73EFF0120FFF7A2FF0120FFF745FFEA
:1020B0000120FFF79CFF0020FFF73FFF0120FFF703
:1020C00096FF10BD10B50120FFF72AFF0120FFF792
:1020D0005EFF0120FFF731FF0120FFF788FFFFF7C8
:1020E00080FF08B1002010BD0020FFF726FF002070
:1020F000FFF74DFF0120FFF77AFF0120F3E770B5EE
:1021000004460026254600BF1CE00020FFF715FF0F
:102110000120FFF76CFF05F0800018B10120FFF7E8
:10212000FFFE02E00020FFF7FBFE0120FFF75FFF4C
:102130000120FFF702FF0120FFF759FF6806050E97
:10214000701CC6B2082EE0DB0020FFF7F6FE01206F
:10215000FFF74DFF0120FFF7E3FE0120FFF747FFE8
:1021600070BD70B500240020FFF7E7FE0120FFF7E7
:102170003EFF0120FFF7D4FE0120FFF708FF0025F6
:1021800014E06006040E0120FFF731FF0120FFF785
:10219000D4FE0120FFF72BFFFFF723FF08B144F027
:1021A00001040020FFF7C9FE681CC5B2082DE8DB5A
:1021B0000020FFF7ECFE0120FFF719FF204670BD5D
:1021C0002DE9F74F82B08046DDF80C90049E44461E
:1021D0000027E11704EBD1614911A4EB411161B172
:1021E0002046E11704EBD1614911A4EB4111C1F183
:1021F00020018FB2BE4200DC374617B3FFF706FF5F
:10220000A020FFF77CFFFFF75DFF200AFFF777FFB5
:10221000FFF758FFE0B2FFF772FFFFF753FF00250B
:1022200007E019F80500FFF76AFFFFF74BFF681C8E
:10223000C5B2BD42F5DBFFF7FDFE44F62060FFF7B7
:10224000D6FEF01B86B2E01984B23046F11706EBD9
:10225000D1614FEA611BF11706EBD1614911A6EB81
:10226000411189B201914FF0000A2DE0FFF7CEFE37
:10227000A020FFF744FFFFF725FF200AFFF73FFFED
:10228000FFF720FFE0B2FFF73AFFFFF71BFF002543
:1022900008E0791919F80100FFF731FFFFF712FF85
:1022A000681CC5B2202DF4DBFFF7C4FE04F120004A
:1022B00084B207F1200087B244F62060FFF797FE52
:1022C0000AF101001FFA80FADA45CFDB019820B34A
:1022D000FFF79CFEA020FFF712FFFFF7F3FE200A96
:1022E000FFF70DFFFFF7EEFEE0B2FFF708FFFFF785
:1022F000E9FE002508E0791919F80100FFF7FFFE53
:10230000FFF7E0FE681CC5B201988542F3DBFFF7DA
:1023100091FE44F62060FFF76AFE05B0BDE8F08F3D
:102320000008014070B50446FFF770FEA020FFF7DB
:10233000E6FEFFF7C7FE200AFFF7E1FEFFF7C2FE49
:10234000E0B2FFF7DCFEFFF7BDFEFFF75FFEA12066
:10235000FFF7D5FEFFF7B6FEFFF703FF0546FFF7D1
:1023600097FEFFF767FE284670BD2DE9F041044651
:102370000D4617463E46FFF749FEA020FFF7BFFE79
:10238000FFF7A0FE200AFFF7BAFEFFF79BFEE0B2C0
:10239000FFF7B5FEFFF796FEFFF738FEA120FFF727
:1023A000AEFEFFF78FFE0CE0FFF7DBFE2870012E7C
:1023B00002D1FFF76DFE01E0FFF750FE6D1C701EAD
:1023C00086B2002EF0D1FFF735FEBDE8F0810000A7
:1023D000032000BF011EA0F10102D0B2FAD1704764
:1023E00010B58021FB4801F0EAFB4021F94801F0DB
:1023F000E4FBFFF7EDFF8021F64801F0DEFB10BDA6
:1024000010B58021F34801F0D8FBFFF7E1FF402130
:10241000F04801F0D2FBFFF7DBFF4021ED4801F06F
:10242000CEFBFFF7D5FF10BD70B5044600251BE0BD
:1024300004F0800020B18021E64801F0BEFB03E0FB
:102440008021E44801F0BBFBFFF7C2FF4021E148D7
:1024500001F0B3FBFFF7BCFF4021DE4801F0AFFB0A
:102460006006040E681CC5B2082DE1DB70BD10B516
:102470008021D84801F0A1FB4021D64801F09DFB06
:10248000FFF7A6FF8021D34801F099FBFFF7A0FFDB
:102490004021D04801F093FBFFF79AFF10BD70B5C3
:1024A00005460C46FFF7E3FF7820FFF7BDFFFFF777
:1024B000A7FF1CB14020FFF7B7FF02E00020FFF7A5
:1024C000B3FFFFF79DFF2846FFF7AEFFFFF798FF2A
:1024D000FFF786FF70BD10B504461CB90021A62089
:1024E000FFF7DDFF012C03D10021A720FFF7D7FF65
:1024F00010BD10B504463CB90021C820FFF7CFFF3E
:102500000021A120FFF7CBFF012C07D10021C02023
:10251000FFF7C5FF0021A020FFF7C1FF10BD10B5D8
:1025200000218D20FFF7BBFF00211420FFF7B7FF2C
:102530000021AF20FFF7B3FF10BD10B500218D20A3
:10254000FFF7ADFF00211020FFF7A9FF0021AE200B
:10255000FFF7A5FF10BD70B500242BE004F1B0011A
:10256000C8B20021FFF79BFF00210846FFF797FF45
:1025700000211020FFF793FFFFF779FF7820FFF786
:1025800053FFFFF73DFF4020FFF74EFFFFF738FFF7
:10259000002509E0904901EB8501085DFFF744FF44
:1025A000FFF72EFF681CC5B2802DF3DBFFF718FF85
:1025B000601CC4B2042CD1DB70BD70B500240CE0EB
:1025C000002506E00020844901EB85010855681CC0
:1025D000C5B2802DF6DB601CC4B2042CF0DBFFF723
:1025E000BAFF70BD70B500240CE0002506E0FF20A6
:1025F000794901EB85010855681CC5B2802DF6DBD1
:10260000601CC4B2042CF0DBFFF7A5FF70BDF0B571
:1026100014460B46CF1701EB5777C7F3C702CF1706
:1026200001EB5777FF10A1EBC707FEB20123B340C0
:10263000DDB24CB1684B03EB80039B5C2B43664FD0
:1026400007EB8007BB541AE0634B03EB80039B5CF2
:10265000DB43614F07EB8007BB545F4B03EB800309
:102660009B5C2B435C4F07EB8007BB545A4B03EB3F
:1026700080039B5CDB43584F07EB8007BB54F0BDE6
:102680002DE9FF4F84B081468A46002002908346A0
:102690000698A0EB09040798A0EB0A06CDF8049071
:1026A000CDF800A0002C01DD012705E00CB90027C2
:1026B00002E04FF0FF376442002E02DD4FF00108C8
:1026C00006E016B94FF0000802E04FF0FF3866420E
:1026D000B44201DD254600E03546002003901EE0AF
:1026E000009AD1B2019AD0B2119AFFF790FF0298E6
:1026F00020440290B3440298A84205DD0298401B92
:102700000290019838440190AB4504DDABEB050B1A
:102710000098404400900398401C80B20390691CCC
:1027200003988842DCDB08B0BDE8F08F2DE9F04368
:1027300006460F4690460025444643E03A1BD1B278
:102740007219D0B20122FFF762FF3A1BD1B2721B9D
:10275000D0B20122FFF75BFF3A19D1B2721BD0B29F
:102760000122FFF754FF3A19D1B27219D0B20122F7
:10277000FFF74DFF7A19D1B23219D0B20122FFF71B
:1027800046FF7A1BD1B23219D0B20122FFF73FFFC8
:102790007A1BD1B2321BD0B20122FFF738FF7A196F
:1027A000D1B2321BD0B20122FFF731FF6D1C05FB05
:1027B00005F004FB040008FB1809B9F1000F01DD66
:1027C000641E6D1E6000604308FB08F18842B5DAA4
:1027D000BDE8F083000C0140CA0300202DE9FE4F44
:1027E0000746884692461C460197CDF80080082C83
:1027F00002D14FF006091FE02046E31704EB5373A4
:10280000DB1021464FEAE47C04EB5C7C4FEAEC0CE5
:10281000A4EBCC0CBCF1000F02D04FF0010C01E096
:102820004FF0000C6344224604EBD27C4FEA6C0C60
:1028300003FB0CF303F0FF09AAF12000C6B2002548
:102840005EE0082C07D106EB4600FE4901EB400094
:1028500010F805B01DE00C2C07D106EB4600FA4934
:1028600001EB800010F805B013E0102C05D1F748FB
:1028700000EB061010F805B00BE0182C07D106EBA2
:10288000C600F34901EB800010F805B001E0BDE897
:10289000FE8F002002901CE00BF0010028B14146A1
:1028A00038460C9AFFF7B3FE09E00C9808B90120EE
:1028B00000E00020024641463846FFF7A8FE4FEAF6
:1028C0006B0B08F1010000F0FF080298401CC0B239
:1028D000029002980828DFDB781CC7B2082C0BD0C6
:1028E00004EBD4714A100199791A8A4204D1019FEC
:1028F00000980830C0B20090DDF80080681CC5B2B6
:102900004D459EDB00BFC2E72DE9F84106460F4664
:1029100014461D46DDF81C8013E0CDF800802278B7
:102920002B4639463046FFF759FF082D02D1B01D1E
:10293000C6B205E0284605EBD07106EB6101CEB2C8
:10294000641C2078202802DB20787E28E5DDBDE8A5
:10295000F88110B50246012000E050430B1EA1F1A2
:102960000104E1B2F9D110BD2DE9FF4F82B0064656
:1029700091461F46DDE90F4A4FF0000B082C01D1AC
:102980004FF0020B002530E0781B401EC1B20A2038
:10299000FFF7DFFFB9FBF0F00A21B0FBF1F201FB1A
:1029A0001208B8F1000F0ED104EBD4710BEB6101EA
:1029B00001FB0561C8B223463022CDE900A403998A
:1029C000FFF70CFF0FE004EBD4710BEB610101FB8F
:1029D0000561C8B208F13001CAB22346CDE900A4AE
:1029E0000399FFF7FBFE681CC5B2BD42CCDB06B005
:1029F000BDE8F08F2DE9FC4F0746884616461C4679
:102A0000BB46CDF804802046E21704EB5272D21088
:102A10002146E31704EB5373DB10A4EBC3030BB1A4
:102A2000012300E000231A44624392B20092002581
:102A300055E0102C05D1874800EB461010F805A092
:102A40001BE0182C07D106EBC600834901EBC00040
:102A500010F805A011E0202C05D1804800EBC6102D
:102A600010F805A009E0402C05D17D4800EB462078
:102A700010F805A001E0BDE8FC8F4FF000091CE054
:102A80000AF0010028B1414638460B9AFFF7BFFD16
:102A900009E00B9808B9012000E0002002464146F9
:102AA0003846FFF7B4FD4FEA6A0A08F1010000F06A
:102AB000FF0809F1010000F0FF09B9F1080FDFDBA1
:102AC000781CC7B2A7EB0B00A04204D15F46019867
:102AD0000830C0B20190DDF80480681C85B200980F
:102AE0008542A6DB00BFC6E708B580468946924608
:102AF000002600274BE04FB91023324608218020E2
:102B0000CDF800A0FFF776FF701CC6B2464522D173
:102B10004FF0000B1AE0012410E000250AE05148B4
:102B200000EB8400415D601E4E4A02EB800041557F
:102B3000681CC5B2042DF2DB601CC4B2902CECDB27
:102B4000FFF709FD0BF1010000F0FF0B4FEA091040
:102B50005845E0DC0026781CC7B2102F00D10027B2
:102B6000012410E000250AE03E4800EB8400415DAE
:102B7000601E3C4A02EB80004155681CC5B2042D22
:102B8000F2DB601CC4B2902CECDBFFF7E4FCB2E794
:102B90002DE9FF4F05460E4617461C46DDF83890D6
:102BA0004FF0000A0095B3462046E21704EB52723C
:102BB000D2102146E31704EB5373DB10A4EBC303DD
:102BC0000BB1012300E000231A44D4B24FF00008F7
:102BD00058E0002003904EE00D9810F80A00029093
:102BE0000AF101001FFA80FA002001901DE002980E
:102BF00000F0010028B14A4631462846FFF707FD9C
:102C00000AE0B9F1000F01D1012000E000200246E6
:102C100031462846FFF7FBFC029840100290701CDA
:102C2000C6B20198401CC0B2019001980828DEDBB2
:102C3000681CC5B20098281AB84217D1009D0BF144
:102C4000080011E00A76000832780008A67C000827
:102C500096820008F28F000872950008929600088C
:102C600012970008CA03002000F0FF0B5E4603988D
:102C7000401CC0B203900398B842ADDB08F10100DC
:102C800000F0FF08A045A4DBBDE8FF8F08B50121D7
:102C9000082001F0A1F9C020ADF8000014208DF843
:102CA000030003208DF802006946374800F0D8FE83
:102CB000C021354800F081FF0021AE20FFF7EFFB77
:102CC00000210846FFF7EBFB00211020FFF7E7FB90
:102CD00000210846FFF7E3FB0021B020FFF7DFFBF0
:102CE00000218120FFF7DBFB0021FF20FFF7D7FB4E
:102CF0000021A120FFF7D3FB0021A620FFF7CFFB87
:102D00000021A820FFF7CBFB00211F20FFF7C7FB06
:102D10000021C820FFF7C3FB0021D320FFF7BFFB32
:102D200000210846FFF7BBFB0021D520FFF7B7FBCA
:102D300000218020FFF7B3FB0021D920FFF7AFFB74
:102D400000211F20FFF7ABFB0021DA20FFF7A7FBD4
:102D500000210846FFF7A3FB0021DB20FFF79FFBC4
:102D600000214020FFF79BFB00218D20FFF797FB00
:102D700000211420FFF793FBFFF71FFC0021AF2079
:102D8000FFF78DFB08BD0000000C014008B50121D4
:102D9000112001F021F9012002F0E1FE002001F0F4
:102DA00088F8002002F079FE4FF40050ADF80000E2
:102DB00010208DF8030002208DF8020069462C488F
:102DC00000F04EFE4FF40051294800F0F8FE4FF499
:102DD0008040ADF8000010208DF8030002208DF82F
:102DE00002006946224800F03BFE4FF48041204833
:102DF00000F0E5FE002002F0B2FE08BD10B5FFF7BE
:102E0000C5FF10BD10B500201A49086001201A49FD
:102E1000C1F8B801052000F00AFC0120154908603E
:102E20001549C1F8B801052000F001FC0020114946
:102E300008601149C1F8B80110BD10B501200D4955
:102E4000086000200C49C1F8B801782000F0EFFBC1
:102E50000120084908600849C1F8B801052000F0C0
:102E6000E6FB0020034908600349C1F8B80110BD22
:102E700000100140B40122420000224210B5044675
:102E80002CB14FF40071FB4800F097FE04E04FF4C2
:102E90000071F84800F093FE10BD10B504462CB147
:102EA0004FF48071F34800F088FE04E04FF4807125
:102EB000F04800F084FE10BD08B50121102001F09B
:102EC0008BF84FF44070ADF8000003208DF802003D
:102ED00010208DF803006946E64800F0C1FD4FF46C
:102EE0000071E44800F069FE4FF48071E14800F0A1
:102EF00064FE0120FFF7D1FF0120FFF7BFFF4FF471
:102F00008060ADF8000003208DF8020010208DF8DD
:102F100003006946D74800F0A3FD4FF48061D5480F
:102F200000F04DFE08BD10B5FFF7C6FF10BD10B58F
:102F30004FF48061CF4800F042FE10BD10B54FF451
:102F40008061CC4800F039FE10BD002001E0411C3A
:102F5000C8B21428FBDB704710B50120FFF79DFFB6
:102F60000120FFF78BFF042000F03DFB0020FFF75E
:102F700094FF042000F037FB0020FFF77FFF10BD17
:102F800010B50020FFF789FF0020FFF777FF04202E
:102F900000F029FB0120FFF771FF042000F023FB64
:102FA0000120FFF77AFF042000F01DFB10BD70B573
:102FB0000446002625460020FFF760FF012000F0B0
:102FC00012FB00BF1CE005F0800018B10120FFF7E4
:102FD00064FF02E00020FFF760FF022000F003FB27
:102FE0000120FFF74BFF022000F0FDFA0020FFF761
:102FF00045FF022000F0F7FA6806050E701CC6B205
:10300000082EE0DB70BD10B50020FFF737FF002071
:10301000FFF743FFFFF799FF0120FFF72FFFFFF7AF
:1030200094FF0020FFF72AFF10BD10B50020FFF726
:1030300025FF0120FFF731FFFFF787FF0120FFF792
:103040001DFFFFF782FF0020FFF718FF10BD38B506
:10305000044694B90121102000F0BEFF4FF48070A7
:10306000ADF8000003208DF8020014208DF8030055
:103070006946804800F0F4FC13E0012C11D10121D5
:10308000102000F0A9FF2002ADF8000003208DF809
:10309000020048208DF803006946764800F0E0FC05
:1030A00000BF38BD10B54FF48071724800F06BFD61
:1030B00010BD70B5054600240120FFF7C8FFFFF7DB
:1030C00044FF002613E00020FFF7D8FE022000F0A6
:1030D0008AFA0120FFF7D2FE6006040EFFF7E2FF36
:1030E00008B144F00104FFF730FF701CC6B2082E8F
:1030F000E9DB012D02D1FFF786FF01E0FFF795FF25
:103100000020FFF7A4FFFFF720FF204670BD10B599
:1031100000240120FFF79BFF012000F064FA01204A
:10312000FFF7ACFEFFF7BEFF38B1601CC4B2642CE1
:1031300003DDFFF725FF012010BD0020FFF79EFEF5
:103140000020F9E770B506460C461546FFF704FF68
:103150003046FFF72CFFFFF7DAFF2046FFF727FF87
:10316000FFF7D5FF2846FFF722FFFFF7D0FFFFF755
:1031700007FF70BD2DE9F04106460C4615460027B5
:10318000FFF7EAFE3046FFF712FFFFF7C0FF2046C9
:10319000FFF70DFFFFF7BBFFFFF7F2FEFFF7DCFEC7
:1031A0002846FFF704FFFFF7B2FF0020FFF781FF7B
:1031B0000746FFF7E5FE3846BDE8F0812DE9F0410E
:1031C00004460D4617461E46DDF8188022460121AA
:1031D0002020FFF7B7FF2A4603212020FFF7B2FF88
:1031E0003A4604212020FFF7ADFF32460621202079
:1031F000FFF7A8FF424609212020FFF7A3FFBDE803
:10320000F08138B50446012C0DD11B4800780090A0
:103210001A4803781A4802781A4801781A48007840
:10322000FFF7CCFF00E000BF00BF38BD2DE9F04143
:1032300006460C4617463D46FFF78EFE2020FFF758
:10324000B6FEFFF764FFF0B2FFF7B1FEFFF75FFFD6
:10325000FFF782FE2120FFF7AAFEFFF758FF1AE0D2
:103260000120FFF726FF2070012D0FD1FFF7DDFEB3
:103270000EE000000010014053000020520000202A
:1032800051000020500000204F000020FFF7BBFE3F
:10329000641C681E85B2002DE2D1FFF771FEBDE807
:1032A000F081000008B50121042000F095FE4FF4E4
:1032B0008050ADF8000010208DF8030003208DF839
:1032C000020069460C4800F0CBFB4FF480510A48DD
:1032D00000F075FC08BD10B54FF48051064800F0B1
:1032E0005FFCC0F10100C4B222464FF48051024895
:1032F00000F067FC10BD0000000801407FB50546E6
:103300000C460121084600F074FE4FF0804001F0A9
:10331000F5F9ADF80850ADF804400020ADF80A000A
:10332000ADF8060001A94FF0804001F0BBFA012181
:10333000880702F0D9F801221146900701F029FE12
:1033400000214FF0804001F009FE1C208DF80000A4
:1033500002208DF801008DF8020001208DF8030095
:10336000684600F0B4FA7FBD10B54721C720FFF7CB
:10337000C5FF00208A49087010BD10B500214FF02C
:10338000804001F0EBFD4FF48051864800F017FCBF
:1033900010BD10B50121880701F0E0FD02231422C1
:1033A000AFF229010D20FEF764FA10BD10B501211E
:1033B000880701F0D3FD02234FF49672AFF2450166
:1033C0000320FEF756FA10BD10B50121880701F061
:1033D000C5FD02234FF4FA72AFF261010E20FEF731
:1033E00048FA10BD10B500214FF0804001F0B6FD45
:1033F0004FF480516B4800F0E2FB694800780528E3
:1034000020DA6948007880F0010067490870644854
:103410000078401C624908706348007820B9012197
:10342000880701F09BFD09E000214FF0804001F08A
:1034300095FD4FF480515B4800F0C1FB022108204C
:10344000FEF77BFA10BD10B5002055490870012128
:10345000880701F083FD02236422AFF27701082080
:10346000FEF707FA10BD10B500214FF0804001F0C3
:1034700075FD4FF480514B4800F0A1FB484800789F
:103480000B2820DA4948007880F00100474908708D
:1034900043480078401C424908704448007820B9ED
:1034A0000121880701F05AFD09E000214FF080401A
:1034B00001F054FD4FF480513A4800F080FB0221A6
:1034C0000920FEF73AFA10BD10B500203449087003
:1034D0000121880701F042FD02236422AFF2790145
:1034E0000920FEF7C6F910BD10B500214FF080404D
:1034F00001F034FD4FF480512A4800F060FB284869
:103500000078072820DA2A48007880F0010028494E
:10351000087023480078401C21490870244800782E
:1035200020B90121880701F019FD09E000214FF0C1
:10353000804001F013FD4FF480511A4800F03FFB2A
:1035400002210C20FEF7F9F910BD10B50020144936
:1035500008700121880701F001FD02236422AFF207
:1035600077010C20FEF785F910BD10B50121880701
:1035700001F0F4FC02234FF47A72AFF2012104202F
:10358000FEF777F910BD10B50121880701F0AFFFF4
:1035900028B1FFF7A0FE0121880701F0B9FF10BD97
:1035A0005400002000080140550000205600002073
:1035B0005700002010B56FF0040000F0D2F92E483B
:1035C00000682E49B0FBF1F02D49087008460078DC
:1035D00000EB4001C1EBC0104FF6FF7101EAC000E3
:1035E0002849088010BD0146254A12784A434FF009
:1035F000E0235A6100229A611A46126942F00102E0
:103600001A6100BF4FF0E022106900F001021AB108
:1036100000F48032002AF5D04FF0E022126922F047
:1036200001024FF0E0231A6100229A6170470146BF
:10363000144A12884A434FF0E0235A6100229A61EB
:103640001A46126942F001021A6100BF4FF0E022EF
:10365000106900F001021AB100F48032002AF5D09E
:103660004FF0E022126922F001024FF0E0231A61CC
:1036700000229A61704700000000002000127A00CA
:10368000580000205A00002000BF704700BF774A52
:10369000128802F04002002AF9D0C2B2734B1B1DFF
:1036A0001A80704700B58BB00121084600F087FCF6
:1036B0006E48001D00906E480190002002909620F8
:1036C0000390002004908020059000200690079031
:1036D00008904FF48050099000200A906946654890
:1036E00000F084FF0121634800F0ABFF01220221BA
:1036F000604800F0B2FF0BB000BD10B586B00446C4
:103700000121042000F068FC0121880300F064FC22
:103710004FF40070ADF8140018208DF81700032046
:103720008DF8160005A9544800F09AF94FF480600E
:10373000ADF8140004208DF8170003208DF8160052
:1037400005A94D4800F08CF901940020ADF808005F
:10375000ADF80A00ADF80C00ADF810000C20ADF883
:103760000E0001A9414800F0DEFC012240F2244194
:103770003E4800F070FD012240213C4800F090FDE1
:1037800001213A4800F05BFD25208DF80000022061
:103790008DF8010001208DF802008DF803006846C5
:1037A00000F095F806B010BD10B54FF4E130FFF70A
:1037B000A4FFFFF777FF00203049087010BD10B557
:1037C00004462146294800F0A7FD00BF8021274874
:1037D00000F010FE0128F9D110BD70B505460E4667
:1037E000002403E0285DFFF7EAFF641CB442F9DB24
:1037F00000BF40211D4800F0FDFD0128F9D170BD3A
:1038000010B500241A48801E44782246811C1C48AA
:1038100003F093F800201949087010BD10B540F26C
:103820002441124800F0FCFDF0B10021114800F0E5
:1038300008FF104800F01CFFC0F196000C49891EDB
:10384000487040F22441094800F014FE96210948CE
:1038500000F00CFF0121074800F0F3FE034800F0E0
:103860005FFD01200549087010BD000000380140CF
:103870000C060020580002400008014060000020B3
:10388000A20600200948804709480047FEE7FEE7F6
:10389000FEE7FEE7FEE7FEE7FEE7FEE7FEE7FEE700
:1038A00004480549054A064B70470000BB03000861
:1038B0003101000898070020980D00209809002089
:1038C0009809002031490143314A1160704770B5B1
:1038D000002100230F22C47804B32D4C246804F483
:1038E000E064C4F5E064210AC1F10403CA404478ED
:1038F00004FA03F18478144021430901254C067829
:10390000A155047804F01F050124AC4005786D1121
:10391000AD0005F1E025C5F8004109E0047804F0A8
:103920001F050124AC401C4D0678761145F8264051
:1039300070BD1A4A0A400243154B1B1F1A6070479C
:1039400039B1134A121D12680243114B1B1D1A6034
:1039500006E00F4A121D126882430D4B1B1D1A60B0
:103960007047042808D14FF0E021096941F00401B3
:103970004FF0E022116107E04FF0E021096921F0EA
:1039800004014FF0E0221161704700000000FA05C9
:103990000CED00E000E400E080E100E080FFFF1FAC
:1039A00010B50446CC48844208D10121042000F01F
:1039B0002DFB0021042000F029FB46E0C74884428B
:1039C00008D10121082000F021FB0021082000F08F
:1039D0001DFB3AE0C248844208D10121102000F0CA
:1039E00015FB0021102000F011FB2EE0BD488442A1
:1039F00008D10121202000F009FB0021202000F047
:103A000005FB22E0B848844208D10121402000F0A3
:103A1000FDFA0021402000F0F9FA16E0B348844294
:103A200008D10121802000F0F1FA0021802000F06F
:103A3000EDFA0AE0AE48844207D10121801500F07A
:103A4000E5FA0021A01500F0E1FA10BD10B5012142
:103A5000084600F0DBFA0021012000F0D7FA10BD83
:103A60002DE9F04102460025002600200023002415
:103A7000002791F803C00CF00F0591F803C00CF07B
:103A8000100CBCF1000F03D091F802C04CEA050500
:103A900091F800C0BCF1000F31D0146800202BE079
:103AA0004FF0010C0CFA00F3B1F800C00CEA030669
:103AB0009E4220D183004FF00F0C0CFA03F7BC4359
:103AC00005FA03FC4CEA040491F803C0BCF1280F8A
:103AD00006D14FF0010C0CFA00FCC2F814C00AE049
:103AE00091F803C0BCF1480F05D14FF0010C0CFA5E
:103AF00000FCC2F810C0401C0828D1D31460B1F8F3
:103B000000C0BCF1FF0F34DD546800202EE000F14E
:103B1000080C4FF0010808FA0CF3B1F800C00CEAE9
:103B200003069E4221D183004FF00F0C0CFA03F7DD
:103B3000BC4305FA03FC4CEA040491F803C0BCF151
:103B4000280F05D100F1080C08FA0CF8C2F814800F
:103B500091F803C0BCF1480F07D100F1080C4FF0F9
:103B6000010808FA0CF8C2F81080401C0828CED3CF
:103B70005460BDE8F0814FF6FF7101800221817031
:103B80000421C17070470246002093680B400BB1BE
:103B9000012000E0002070470146886880B270472D
:103BA00002460020D3680B400BB1012000E000204A
:103BB00070470146C86880B2704701617047416133
:103BC00070470AB1016100E041617047C160704710
:103BD0004FF480320A438261816182618269826925
:103BE000704702460020434B18684FF68073184018
:103BF00040EA021008433F4B186070473E49C861D5
:103C00007047F0B50A46002300240021002500F08B
:103C10000046B6F1004F02D1364EF16901E0354E53
:103C20007168C0F3034583B200F44016B6F5401F37
:103C300008D121F070612F4E766826F070662D4F06
:103C40007E6012E000F48016B6F5801F06D10326D0
:103C500006FA05F4A14341F0706106E0460D360115
:103C600003FA06F6B14341F0706122B1460D360108
:103C700003FA06F6314300F00046B6F1004F02D1D8
:103C80001C4EF16101E01B4E7160F0BD30B50022A9
:103C90008B071C0F0F2303FA04F2164B08338C100A
:103CA00053F824309343134C08348D1044F82530D6
:103CB00023468C1053F824308C07240F00FA04F4A8
:103CC00023430C4C08348D1044F8253030BD0A498C
:103CD000DC3108607047000000080140000C014022
:103CE000001001400014014000180140001C014078
:103CF000002001400000014000002042DF48006831
:103D000040F00100DD49086008464068DC49084091
:103D1000DA49486008460068DA490840D74908602F
:103D20000846006820F4802008600846406820F4B7
:103D3000FE0048604FF41F0088607047CF49096853
:103D400021F48031CD4A11601146096821F48021A7
:103D50001160B0F5803F03D0B0F5802F0ED106E0A2
:103D6000C649096841F48031C44A116007E0C3497B
:103D7000096841F4A021C14A116000E000BF00BF02
:103D8000704710B501460022002300204A11012A85
:103D900002D1BA4C236806E0022A02D1B74C236A4A
:103DA00001E0B64C636A01F01F02012494401C40FC
:103DB0000CB1012000E0002010BD38B500200090BB
:103DC0000024002500BF3120FFF7DBFF05460098E7
:103DD000401C00900098B0F5A06F01D0002DF2D0EB
:103DE0003120FFF7CEFF08B1012400E00024204677
:103DF00038BD01460020A14A106820F0F80040EAD2
:103E0000C10010607047A04908607047024600205A
:103E10009A4B586820F47C1042EA01031843974BF0
:103E20005860704798490866704701460020934AD9
:103E3000506820F003000843506070478F48406886
:103E400000F00C007047014600208C4A506820F0BA
:103E5000F00008435060704701460020874A5068D0
:103E600020F4E06008435060704701460020834A18
:103E7000506820F4605040EAC1005060704729B19A
:103E80007E4A527A02437D4B5A7204E07B4A527A50
:103E900082437A4B5A7270477B49D8310860704729
:103EA00001460020754A506820F4404008435060A5
:103EB00070470021714A20321170704A82F8201038
:103EC000012802D004280AD104E001216B4A2032E3
:103ED000117005E00521694A2032117000E000BF31
:103EE00000BF70476949086070476449096A014327
:103EF000624A11627047654944390860704730B5BD
:103F000000210022002400235C4D6D6805F00C01A7
:103F100021B1042905D0082923D105E05C4D0560B5
:103F200022E05B4D05601FE0544D6D6805F4701292
:103F3000524D6D6805F48034022505EB92421CB9A0
:103F4000544D554305600BE04C4D6D6805F400354C
:103F50001DB1504D5543056002E04D4D5543056080
:103F600002E04B4D056000BF00BF444D6D6805F099
:103F7000F0010909484D6B5C0568DD4045603F4D27
:103F80006D6805F4E061090A434D6B5C4568DD40EE
:103F900085603A4D6D6805F46051C90A3E4D6B5C11
:103FA0004568DD40C560354D6D6805F44041890BBD
:103FB0003A4D6B5CC568B5FBF3F5056130BD29B1C1
:103FC0002E4A526902432D4B5A6104E02B4A526932
:103FD00082432A4B5A61704729B1284A92690243A9
:103FE000264B9A6104E0254A92698243234B9A61E9
:103FF000704729B1214AD2690243204BDA6104E0BB
:104000001E4AD26982431D4BDA61704729B11B4AAF
:10401000D2680243194BDA6004E0184AD26882433E
:10402000164BDA60704729B1144A12690243134BE8
:104030001A6104E0114A12698243104B1A617047F9
:1040400012494039086070470F49C86470470B49EE
:10405000C87170470948406A40F08070074948625B
:10406000704701460020054A92680A400AB10120C3
:1040700000E000207047014988727047001002403C
:104080000000FFF8FFFFF6FE0000424280044242BB
:1040900000127A0000093D0061000020710000203C
:1040A00010B50446FB48844209D101218803FFF77B
:1040B000ADFF00214FF48040FFF7A8FF32E0F64843
:1040C000844209D101214804FFF7ADFF00214FF4DC
:1040D0000030FFF7A8FF25E0F048844209D1012114
:1040E0008804FFF7A0FF00214FF48020FFF79BFF1B
:1040F00018E0EB48844209D10121C804FFF793FF7F
:1041000000214FF40020FFF78EFF0BE0E5488442CA
:1041100008D101210805FFF786FF00214FF4801028
:10412000FFF781FF10BD2DE9F04786B005460E462A
:104130000024A24600BFA1460027B08900B100BFFD
:104140002F462C8A4CF6FF700440F08804432C82E2
:10415000AC894EF6F3100440B08831890843718968
:1041600008430443AC81AC8A4FF6FF400440B08959
:104170000443AC8201A8FFF7C2FEC648874202D1C1
:10418000DDF810A001E0DDF80CA0A88900F40040E3
:1041900040B10AEBCA0000EB0A1031684900B0FBDD
:1041A000F1F807E00AEBCA0000EB0A103168890059
:1041B000B0FBF1F86420B8FBF0F0040120096421A1
:1041C00001FB1089A88900F4004040B1322000EBC7
:1041D000C900B0FBF1F000F00700044308E0322012
:1041E00000EB09106421B0FBF1F000F00F00044374
:1041F0002C8106B0BDE8F0874FF416510160002114
:104200008180C18001810C21418100218181704721
:1042100010B502460020108A4FF2FF0318400B88A9
:104220004C8823438C882343CC8823431843108233
:1042300010BD0021018041808180C180704721B183
:10424000828942F40052828104E082894DF6FF7334
:104250001A4082817047F0B50346002400260025ED
:10426000002040F66A17B94200D100BF1846C1F3DA
:10427000421401F01F06012707FA06F5012C01D1AF
:104280000C3004E0022C01D1103000E014301AB1DF
:1042900007682F43076002E00768AF430760F0BD7F
:1042A0001AB1838A0B43838202E0838A8B43838221
:1042B0007047028A4FF6F0731A400282028A0A435C
:1042C0000282704782894FF2FF731A40828182898D
:1042D0000A438281704721B1828942F002028281C1
:1042E00004E082894FF6FD731A4082817047028A8A
:1042F0004FF6DF731A400282028A0A430282704735
:1043000021B1028A42F48042028204E0028A4BF622
:10431000FF731A4002827047C1F30802828070471F
:1043200001468888C0F308007047818941F0010187
:1043300081817047028BD2B20283028B42EA012252
:1043400002837047028B02F47F420283028B0A438E
:104350000283704721B1828A42F02002828204E007
:10436000828A4FF6DF731A408282704721B1828AB7
:1043700042F01002828204E0828A4FF6EF731A4004
:104380008282704721B1828A42F00802828204E070
:10439000828A4FF6F7731A408282704721B1828970
:1043A00042F40042828103E08289C2F30E028281DC
:1043B000704721B1828A42F40062828204E0828ADC
:1043C0004FF2FF731A4082827047828A4FF6FB7366
:1043D0001A408282828A0A438282704721B1828A8D
:1043E00042F00202828204E0828A4FF6FD731A4094
:1043F0008282704702460020B1F5007F00D100BFE5
:1044000013880B400BB1012000E00020704701F43D
:104410000072B2F5007F00D100BFCA43028070472E
:1044200070B50246002400230025002040F66A16DD
:10443000B14200D100BFC1F3421501F01F030126B4
:1044400006FA03F3012D02D19689334006E0022DCE
:1044500002D1168A334001E0968A33400C120126BD
:1044600006FA04F41688344013B10CB1012000E0C0
:10447000002070BD10B50022002340F66A14A1424E
:1044800000D100BF0A1201249440A3B2DC4304808F
:1044900010BD0000003801400044004000480040CA
:1044A000004C00400050004001684FF6FE72114081
:1044B00001600021016041608160C1608D498842D6
:1044C00008D18C490839496841F00F01894A083AF6
:1044D00051608AE087491431884208D185490839FA
:1044E000496841F0F001834A083A51607DE0814912
:1044F0002831884208D17F490839496841F4706100
:104500007C4A083A516070E07A493C31884208D1CF
:1045100078490839496841F47041764A083A51604F
:1045200063E074495031884208D1724908394968BA
:1045300041F470216F4A083A516056E06D49643188
:10454000884208D16B490839496841F47001694AC9
:10455000083A516049E067497831884208D1654995
:104560000839496841F07061624A083A51603CE09C
:104570006149884206D1011F096841F00F01021FFD
:10458000116032E05C491431884208D15A49091F50
:10459000096841F0F001584A121F116025E05649A0
:1045A0002831884208D15449091F096841F47061D3
:1045B000514A121F116018E04F493C31884208D11E
:1045C0004D49091F096841F470414B4A121F11609F
:1045D0000BE049495031884207D14749091F096812
:1045E00041F47021444A121F1160704710B5002237
:1045F000026847F6F0739A430C6A8B6823430C6990
:1046000023434C6923438C692343CC6923434C6A7D
:1046100023438C6A23431A430260CB6843600B68D0
:1046200083604B68C36010BD002101604160816000
:10463000C160016141618161C16101624162816268
:10464000704721B1026842F00102026004E0026892
:104650004FF6FE731A40026070471AB103680B43AD
:10466000036002E003688B4303607047416070475A
:104670000146486880B2704701460020002201F0E0
:1046800080531BB11C4B083B1A6802E0194B083BD6
:104690001A6802EA01030BB1012000E00020704714
:1046A00000F0805119B11449091F086002E0114956
:1046B00008394860704701460020002201F080530D
:1046C0001BB10D4B083B1A6802E00A4B083B1A6805
:1046D00002EA01030BB1012000E00020704700F066
:1046E000805119B10449091F086002E001490839E5
:1046F00048607047080002400804024010B50446B4
:10470000FE48844208D10121C014FFF77FFC00213C
:10471000E014FFF77BFCC4E0B4F1804F08D1012125
:104720000846FFF780FC00210120FFF77CFCB8E081
:10473000F348844208D101210220FFF774FC0021D4
:104740000220FFF770FCACE0EE48844208D1012162
:104750000420FFF768FC00210420FFF764FCA0E0C0
:10476000E948844208D101210820FFF75CFC0021C0
:104770000820FFF758FC94E0E448844208D1012166
:104780001020FFF750FC00211020FFF74CFC88E0C0
:10479000DF48844208D101212020FFF744FC00219A
:1047A0002020FFF740FC7CE0DA48844208D1012158
:1047B0004014FFF72BFC00216014FFF727FC70E08A
:1047C000D548844209D10121C804FFF71FFC00210C
:1047D0004FF40020FFF71AFC63E0D048844209D16F
:1047E00001210805FFF712FC00214FF48010FFF7AC
:1047F0000DFC56E0CA48844209D101214805FFF763
:1048000005FC00214FF40010FFF700FC49E0C5480B
:10481000844208D101214020FFF705FC00214020FF
:10482000FFF701FC3DE0C048844208D1012180200F
:10483000FFF7F9FB00218020FFF7F5FB31E0BB48D3
:10484000844208D101218015FFF7EDFB0021A0155E
:10485000FFF7E9FB25E0B648844209D101210804AD
:10486000FFF7D4FB00214FF48030FFF7CFFB18E0B7
:10487000B048844209D101214804FFF7C7FB002159
:104880004FF40030FFF7C2FB0BE0AB48844208D185
:1048900001218804FFF7BAFB00214FF48020FFF7C5
:1048A000B5FB10BD00220288944B98420ED0994B64
:1048B00098420BD0B0F1804F08D0914B984205D070
:1048C000904B984202D0904B984204D14FF68F7390
:1048D0001A404B881A438D4B984207D08C4B984214
:1048E00004D04FF6FF431A40CB881A4302808B88CE
:1048F00083850B880385814B98420BD0854B98426A
:1049000008D08B4B984205D08A4B984202D08A4BF4
:10491000984201D10B7A038601238382704770B5D8
:10492000002400220023058C4FF6FE7635400584D6
:10493000028C8388048B4FF68F752C40B51E2C405B
:104940000D882C43751E2A400D892A434D882A4321
:104950006A4DA8420BD06F4DA84208D0744DA842B2
:1049600005D0744DA84202D0734DA84213D14FF622
:10497000F7752A404D892A434FF6FB752A408D88EA
:104980002A434FF6FF652B404FF6FF552B408D898C
:104990002B43CD892B4383800483CD888586028475
:1049A00070BD70B5002400220023058C4FF6EF7611
:1049B00035400584028C8388048B48F6FF752C40B3
:1049C0004FF6FF452C400D884FF6FF7606EA052589
:1049D0002C434FF6DF752A400D8906EA05152A4358
:1049E0004D8806EA05152A43444DA84202D0494D98
:1049F000A8421DD14FF67F752A404D894FF6FF76AC
:104A000006EA05152A434FF6BF752A408D8806EA47
:104A100005152A434FF6FF352B404FF2FF752B400B
:104A20008D8906EA85052B43CD8906EA85052B434A
:104A300083800483CD880587028470BD70B500240F
:104A400000220023058C4FF6FF6635400584028C5A
:104A50008388848B4FF68F752C404FF6FC752C4065
:104A60000D882C434FF6FF552A400D894FF6FF76EF
:104A700006EA05252A434D8806EA05252A431F4DE7
:104A8000A84202D0234DA8421DD14FF2FF752A4003
:104A90004D894FF6FF7606EA05252A434FF6FF3586
:104AA0002A408D8806EA05252A434EF6FF752B40DD
:104AB0004DF6FF752B408D8906EA05152B43CD89F0
:104AC00006EA05152B4383808483CD88858702847D
:104AD00070BD70B5002200230024058C4EF6FF76D1
:104AE00035400584038C8488828B48F6FF752A4004
:104AF0004FF6FF452A400D8820E00000002C0140C1
:104B00000004004000080040000C0040001000407D
:104B10000014004000340140004C014000500140AE
:104B20000054014000180040001C004000200040DC
:104B30000040014000440140004801404FF6FF762C
:104B400006EA05252A434DF6FF752B400D8906EA36
:104B500005352B434D8806EA05352B43FA4DA8420F
:104B600002D0FA4DA84208D14BF6FF752C408D8932
:104B70004FF6FF7606EA85152C4384808283CD8824
:104B8000A0F84050038470BD828B4FF2FF331A406F
:104B90008283828B4FF6FF7303EA01231A438283D9
:104BA0007047F0B50C461546002200210026078C00
:104BB0004EF6FF7C07EA0C070784828B018C4FF6C8
:104BC000FF7707EA043640F6FF473A404FF6FF7793
:104BD00007EA05273A434FF6FF7707EA03373A43D8
:104BE000D94FB8420ED0D94FB8420BD0B0F1804F58
:104BF00008D0D74FB84205D0D64FB84202D0D64FD2
:104C0000B84206D14DF6FF77394046F48057394314
:104C100005E047F6FF57394044F480573943828313
:104C20000184F0BD828B4FF6F3731A408283828B2E
:104C30000A4382837047F0B50C46154600220021D6
:104C40000026078C4FF6FF6C07EA0C070784828B5F
:104C5000018C4FF6FF7707EA04264FF60C773A40AF
:104C60004FF6FF7707EA03172F433A43B64FB84290
:104C70000ED0B64FB8420BD0B0F1804F08D0B44F31
:104C8000B84205D0B34FB84202D0B34FB84206D1B4
:104C90004FF6FF57394046F48077394305E04FF22D
:104CA000FF57394044F48077394382830184F0BD53
:104CB000028B4FF2FF331A400283028B4FF6FF73D1
:104CC00003EA01231A4302837047F0B50C461546E8
:104CD000002200210026078C4FF6EF7C07EA0C0724
:104CE0000784028B018C4FF6FF7707EA041640F623
:104CF000FF473A404FF6FF7707EA03373A434FF64C
:104D0000FF7707EA05273A438F4FB8420ED08F4FFF
:104D1000B8420BD0B0F1804F08D08D4FB84205D0CB
:104D20008C4FB84202D08C4FB84206D14FF6DF7795
:104D3000394046F01007394305E04FF65F773940B8
:104D400044F01007394302830184F0BD028B4FF613
:104D5000F3731A400283028B0A4302837047F0B553
:104D60000C46154600220021068C4FF6FE773E4089
:104D70000684028B018C4FF60C7632407E1C06EACC
:104D800003162E433243704EB0420ED06F4EB042E7
:104D90000BD0B0F1804F08D06D4EB04205D06D4EB3
:104DA000B04202D06C4EB04206D14FF6FD76314093
:104DB00044F00106314305E04FF6F576314044F00A
:104DC0000106314302830184F0BD70B505460C46EF
:104DD0005D4885420ED05D4885420BD0B5F1804FCD
:104DE00008D05B48854205D05A48854202D05A48CF
:104DF000854200D100E000BF208850B92389A288F5
:104E000061882846FFF7ABFFE1882846FFF79EFF41
:104E100025E0208804280AD12389A28861882846B1
:104E2000FFF753FFE1882846FFF742FF17E020888D
:104E300008280AD12389A28861882846FFF7FBFE4B
:104E4000E1882846FFF7EEFE09E02389A288618801
:104E50002846FFF7A6FEE1882846FFF795FE70BDBD
:104E60002DE9F04105460C4600260127608808B967
:104E7000022600E00026A088012801D1022700E0D8
:104E800001272088A0B92389A28861882846FFF7D6
:104E900066FFE1882846FFF759FF23893A463146E5
:104EA0002846FFF712FFE1882846FFF701FF13E0CD
:104EB0002389A28861882846FFF707FFE1882846F2
:104EC000FFF7F6FE23893A4631462846FFF747FFAB
:104ED000E1882846FFF73AFFBDE8F0810A884B8851
:104EE0001A438B881A43CB881A430B891A434B8980
:104EF0001A438B891A43A0F8442070474FF6FF717C
:104F0000818000210180C1804180017270470021B1
:104F1000018041808180C180018141818181C18185
:104F20007047002101804180012181800021C180E2
:104F3000018170470021018041808180C180018111
:104F40004181818170470000002C01400034014004
:104F50000004004000080040000C004021B102881D
:104F600042F00102028004E002884FF6FE731A400C
:104F70000280704731B1B0F8442042F40042A0F8FA
:104F8000442005E0B0F84420C2F30E02A0F844200B
:104F900070471AB183890B43838102E083898B4375
:104FA000838170478182704741EA0203A0F848304C
:104FB00070471AB183890B43838102E083898B4355
:104FC0008381704701894FF6F87211400181704763
:104FD0000A46002101894FF68F7319401143018160
:104FE000704730B504460D4629462046FFF7F0FFCE
:104FF000208940F00700208130BD2DE9F0410446B2
:105000000D4616461F46602D06D13B46012231460D
:105010002046FFF75AFE05E03B4601223146204676
:10502000FFF79DFE29462046FFF7D2FF208940F07A
:1050300007002081BDE8F08130B50C4600210189D0
:10504000C9B24FF6FF7505EA0325154325432943E9
:10505000018130BD2DE9F04105460E4617469846C0
:10506000002443463A4631462846FFF7E5FF2C899F
:105070004FF6F870044044F007044FF68F70044078
:1050800044F070042C81BDE8F081F0B504460D4673
:1050900016461F463B46324629462046FFF7CCFFC0
:1050A000208940F480402081F0BD018582827047D4
:1050B0000A46002101884FF68F7319401143018081
:1050C0007047F0B50C4615461E460021002200230D
:1050D0000189028B038C4FF6F877394021434FF654
:1050E000FC473A4040F201173A434FF6DD773B4028
:1050F0004FF6FF7707EA06172F433B4301810283F0
:105100000384F0BD0A460021018B4FF68F731940CE
:105110001143018370470A460021018B48F6FF7353
:1051200019404FF6FF7303EA0223194301837047C6
:105130000A460021818B4FF68F73194011438183FA
:1051400070470A460021818B48F6FF7319404FF6DD
:10515000FF7303EA022319438183704721B1028858
:1051600042F08002028004E002884FF67F731A400A
:105170000280704721B1828842F00402828004E0FC
:1051800082884FF6FB731A408280704721B1828873
:1051900042F00802828004E082884FF6F7731A40DA
:1051A0008280704721B1828842F00102828004E04F
:1051B00082884FF6FE731A40828070470A460021AB
:1051C000018B4FF6F77319401143018370470A466C
:1051D0000021018B4FF2FF7319404FF6FF7303EA72
:1051E00002231943018370470A460021818B4FF641
:1051F000F77319401143818370470A460021818B60
:105200004FF2FF7319404FF6FF7303EA022319436D
:10521000818370470A460021018B4FF6FB731940CA
:105220001143018370470A460021018B4FF6FF337B
:1052300019404FF6FF7303EA0223194301837047B5
:105240000A460021818B4FF6FB731940114381837D
:1052500070470A460021818B4FF6FF3319404FF605
:10526000FF7303EA02231943818370470A46002132
:10527000018B4FF67F7319401143018370470A4633
:105280000021018BC1F30E014FF6FF7303EA0223E5
:105290001943018370470A460021818B4FF67F73C3
:1052A00019401143818370470A460021818BC1F365
:1052B0000E014FF6FF7303EA0223194381837047FF
:1052C0000A460021018C4FF6FD73194011430184F9
:1052D00070470A460021018C4FF6F77319401143BD
:1052E000018470470A460021018C4FF6DF73194094
:1052F0004FF6FF7303EA02131943018470470A460D
:105300000021018C4FF67F7319404FF6FF7303EABB
:1053100002131943018470470A460021018C4FF69D
:10532000FF5319404FF6FF7303EA02231943018428
:1053300070470A460021018C4FF2FF7319404FF667
:10534000FF7303EA02231943018470470A460021D0
:10535000018C4DF6FF7319404FF6FF7303EA0233D9
:1053600019430184704730B5002301248C40A3B257
:10537000048C9C430484048C02FA01F5ADB22C43E6
:10538000048430BD30B5002304248C40A3B2048CC7
:105390009C430484048C02FA01F5ADB22C430484CE
:1053A00030BD70B503460020002418461830012592
:1053B0008D40ACB21D8CA5431D8409B1082909D1CB
:1053C00000EB6100056825F0700505600568154370
:1053D00005600EE00D1FC5F34E052844056825F451
:1053E000E045056005684FF6FF7606EA022635437C
:1053F000056070BD21B1028842F00202028004E023
:1054000002884FF6FD731A400280704721B102886E
:1054100042F00402028004E002884FF6FB731A4057
:105420000280704721B1828842F08002828004E0CD
:1054300082884FF67F731A408280704702884FF649
:10544000F7731A40028002880A43028070478288FC
:105450004FF68F731A40828082880A438280704799
:1054600002894FF6F8731A40028102890A430281C9
:10547000704702894FF67F731A40028102890A43FE
:1054800002817047818470478185704781867047AB
:105490000187704781877047A0F8401070470288E5
:1054A0004FF6FF431A40028002880A430280704789
:1054B0000146888E70470146088F70470146888FE5
:1054C00070470146B1F8400070470146888C70472C
:1054D0000146088D704702460020138A0B400BB12D
:1054E000012000E000207047CA430282704730B5B7
:1054F0000246002000230024158A05EA010395894D
:1055000005EA010413B10CB1012000E0002030BD18
:10551000CA43028270470000002044490860091D08
:105520000860091D0860091D086041483F491431A1
:105530000860704700213D498279002A3AD00A4626
:10554000126803689A430B461A600A1D12680368C2
:105550009A430B1D1A60027911440A6803681A43C2
:105560000A60324A0832126803689A432F4B0833A4
:105570001A601A1D126803689A432C4B0C331A6088
:105580004279102A0ED11A1F126803681A43274B5A
:1055900008331A601A1D126803681A43234B0C3330
:1055A0001A600DE02149427911440A6803681A43E0
:1055B0000A6005E0027911440A6803689A430A60A8
:1055C00070470021016001710C214171002181713E
:1055D00070471649103109680143144A10321160AE
:1055E000704701460020114A143212680A400AB17D
:1055F000012000E0002070470C491431086070471A
:10560000014600200022094B1B6803EA0102074BF8
:1056100014331B680B4013B10AB1012000E00020D5
:1056200070470249143108607047000000040140CF
:10563000FFFF0F0010B50446FA48844208D101214B
:105640004015FEF7E3FC00216015FEF7DFFC17E0D4
:10565000F548844208D101210015FEF7D7FC00214E
:105660002015FEF7D3FC0BE0F048844208D101215D
:10567000C803FEF7CBFC00214FF40040FEF7C6FC48
:1056800010BD30B50246002000235068E84C204091
:105690000D790C6844EA0524204350609068E54C7D
:1056A0002040D1E902542C434D7944EA450420437B
:1056B0009060D06A20F470000C7C641EE4B2234336
:1056C00040EA0350D06230BD002101600171417198
:1056D0008160C16001210174704721B1826842F08C
:1056E0000102826003E0826822F00102826070475A
:1056F00021B1826842F48072826003E0826822F401
:1057000080728260704710B50023CBB21AB1446832
:105710001C43446002E044689C43446010BD8168BF
:1057200041F0080181607047014600208A6802F05C
:1057300008020AB1012000E000207047816841F0B2
:10574000040181607047014600208A6802F004026B
:105750000AB1012000E00020704721B1826842F4C4
:10576000A002826003E0826822F4A0028260704797
:10577000014600208A6802F480020AB1012000E09C
:105780000020704710B50A4600210023416821F42B
:105790006041531E41EA4331416010BD21B142686E
:1057A00042F40062426003E0426822F40062426018
:1057B0007047F0B504460D4600200021092D11DD8B
:1057C000E068A5F10A0606EB4607072606FA07F188
:1057D0008843A5F10A0606EB460603FA06F10843DC
:1057E000E0600CE0206905EB4507072606FA07F1A3
:1057F000884305EB450603FA06F108432061072AB2
:105800000FDA606B561E06EB86071F2606FA07F1B5
:105810008843561E06EB860605FA06F108436063C8
:1058200022E00D2A0FDA206BD61F06EB86071F2613
:1058300006FA07F18843D61F06EB860605FA06F13D
:105840000843206310E0E06AA2F10D0606EB86072C
:105850001F2606FA07F18843A2F10D0606EB86061D
:1058600005FA06F10843E062F0BD21B1826842F416
:105870008012826003E0826822F4801282607047A6
:105880000146C86C80B2704766484C30006870476B
:1058900021B1426842F48062426003E0426822F42F
:1058A00080624260704721B1426842F48052426097
:1058B00003E0426822F48052426070470A460021A9
:1058C000816821F4E04111438160704721B1826811
:1058D00042F40042826003E0826822F40042826067
:1058E000704721B1826842F40212826003E082684C
:1058F00022F4021282607047014600208A6802F496
:1059000000120AB1012000E000207047F0B5044603
:105910001546002000220026092911DDE068A1F1CA
:105920000A0707EB470C072707FA0CF29043A1F18F
:105930000A0707EB470703FA07F21043E0600CE0A1
:10594000206901EB410C072707FA0CF2904301EBA9
:10595000410703FA07F210432061A06BC0F3015620
:10596000EF1C06F1010CA7EB0C0707EB870C1F27B8
:1059700007FA0CF29043EF1C06F1010CA7EB0C07A1
:1059800007EB870701FA07F21043A063F0BD10B5DB
:105990000A4600210023816B21F44011531E41EA85
:1059A0000351816310BD08B5002300930090009B54
:1059B0000B440093009B1A6008BD08B50246002006
:1059C0000090009201F12800009B1844009000987C
:1059D000006880B208BD0A4600214168164B194094
:1059E0001143416070474162826270470A4600215C
:1059F000416821F01F0111434160704740B10949DE
:105A00000831096841F40001064A0832116007E0D4
:105A100004490831096821F40001024A0832116082
:105A2000704700000024014000280140003C014074
:105A3000FFFEF0FFFDF7F1FFFFFD3FFF02460020F4
:105A400013680B400BB1012000E000207047CA43EF
:105A50000260704770B502460020002300240B123C
:105A60005568CEB205EA060415681D4015B10CB1A3
:105A7000012000E0002070BD00220A12D343036021
:105A80007047000010B50120FEF7DAFA0020FEF79B
:105A9000D7FA10BD2A49086070472949091F0860D4
:105AA0007047274984310860704701460020254A25
:105AB00010884FF67F4210400843224A10807047FA
:105AC000014600201F4A10884FF68072104008439C
:105AD0001C4A1080704708B500220092194A2C3ADF
